:100000000C943A000C9457000C9457000C94570031
:100010000C9457000C9457000C9457000C94570004
:100020000C9457000C9457000C9457000C945700F4
:100030000C9457000C9457000C9457000C945700E4
:100040000C9408010C9457000C9457000C94570022
:100050000C94570080009000A000B000C000D000B9
:10006000E000F000F008F308F608F908FC08FF08C3
:100070000209050911241FBECFE5D8E0DEBFCDBFC0
:1000800011E0A0E6B0E0EEE3F2E102C005900D92CF
:10009000AA32B107D9F721E0AAE2B1E001C01D926E
:1000A000AC32B207E1F70E94B4030C941D090C9422
:1000B000000087B1806487B987B18F7787B986B12F
:1000C000816086B986B1826086B986B1846086B95E
:1000D00086B18F7786B986B1877F86B986B1806110
:1000E00086B9089586B1806886B9089590E0883011
:1000F000910508F084C0FC01E65DFF4F0C940809EF
:1001000087B18E7F87B987B18D7F87B987B18B7FA4
:1001100087B987B1877F87B987B18F7E87B90895FF
:1001200087B1816087B987B18D7F87B987B18B7FB0
:1001300087B987B1877F87B987B18F7E87B90895DF
:1001400087B18E7F87B987B1826087B987B18B7F8E
:1001500087B987B1877F87B987B18F7E87B90895BF
:1001600087B1816087B987B1826087B987B18B7F9A
:1001700087B987B1877F87B987B18F7E87B908959F
:1001800087B18E7F87B987B18D7F87B987B184604A
:1001900087B987B1877F87B987B18F7E87B908957F
:1001A00087B1816087B987B18D7F87B987B1846056
:1001B00087B987B1877F87B987B18F7E87B908955F
:1001C00087B18E7F87B987B1826087B987B1846034
:1001D00087B987B1877F87B987B18F7E87B908953F
:1001E00087B1816087B987B1826087B987B1846040
:1001F00087B987B1877F87B987B18F7E87B908951F
:1002000086B1806486B9349BFECF84B195B10895E0
:100210001F920F920FB60F9211242F933F934F937B
:100220005F936F937F938F939F93AF93BF93EF935E
:10023000FF93E0912A01F0912B010995FF91EF9135
:10024000BF91AF919F918F917F916F915F914F91EE
:100250003F912F910F900FBE0F901F9018958430F3
:1002600008F072C0683008F06FC04130A1F58130ED
:1002700089F028F08230C9F0833011F108952AB353
:1002800081E090E002C0880F991F6A95E2F7822B07
:100290008ABB089527B381E090E002C0880F991FC0
:1002A0006A95E2F7822B87BB089524B381E090E042
:1002B00002C0880F991F6A95E2F7822B84BB0895CC
:1002C00021B381E090E002C0880F991F6A95E2F7A0
:1002D000822B81BB0895411137C0813091F028F005
:1002E0008230D9F0833029F108952AB381E090E07B
:1002F00002C0880F991F6A95E2F7809582238ABB16
:10030000089527B381E090E002C0880F991F6A9595
:10031000E2F78095822387BB089524B381E090E0C3
:1003200002C0880F991F6A95E2F78095822384BBEB
:10033000089521B381E090E002C0880F991F6A956B
:10034000E2F78095822381BB0895843008F072C063
:10035000683008F06FC04130A1F5813089F028F095
:100360008230C9F0833011F108952BB381E090E021
:1003700002C0880F991F6A95E2F7822B8BBB089504
:1003800028B381E090E002C0880F991F6A95E2F7D8
:10039000822B88BB089525B381E090E002C0880FCE
:1003A000991F6A95E2F7822B85BB089522B381E0FD
:1003B00090E002C0880F991F6A95E2F7822B82BBFA
:1003C0000895411137C0813091F028F08230D9F082
:1003D000833029F108952BB381E090E002C0880FAB
:1003E000991F6A95E2F7809582238BBB089528B305
:1003F00081E090E002C0880F991F6A95E2F780952E
:10040000822388BB089525B381E090E002C0880F65
:10041000991F6A95E2F78095822385BB089522B3E0
:1004200081E090E002C0880F991F6A95E2F78095FD
:10043000822382BB0895843038F56130A1F4813085
:1004400049F028F0823049F0833051F008958FEF61
:100450008ABB08958FEF87BB08958FEF84BB089503
:100460008FEF81BB089561110FC0813041F028F0FA
:10047000823039F0833039F008951ABA089517BAE6
:10048000089514BA089511BA0895843008F0A3C0ED
:10049000623008F0A0C0413009F054C08130C9F08A
:1004A00028F0823049F18330D1F108954AB3862F84
:1004B00090E0880F991F880F991F2FE030E0B90155
:1004C00002C0660F771F8A95E2F7CB01842B8ABBA7
:1004D000089547B3862F90E0880F991F880F991FC2
:1004E0002FE030E0B90102C0660F771F8A95E2F76E
:1004F000CB01842B87BB089544B3862F90E0880FEF
:10050000991F880F991F2FE030E0B90102C0660FD4
:10051000771F8A95E2F7CB01842B84BB089541B302
:10052000862F90E0880F991F880F991F2FE030E0E9
:10053000B90102C0660F771F8A95E2F7CB01842BC1
:1005400081BB0895411147C08130B1F028F082305D
:1005500019F1833089F108952AB370E0660F771F8F
:10056000660F771F80EF90E002C0959587956A959A
:10057000E2F782238ABB089527B370E0660F771FE6
:10058000660F771F80EF90E002C0959587956A957A
:10059000E2F7822387BB089524B370E0660F771FCC
:1005A000660F771F80EF90E002C0959587956A955A
:1005B000E2F7822384BB089521B370E0660F771FB2
:1005C000660F771F80EF90E002C0959587956A953A
:1005D000E2F7822381BB08958430E8F56230D8F5D4
:1005E000813099F028F08230E9F0833041F10895AC
:1005F000611105C08BB3807F4F70482B04C08BB353
:100600008F70407F482B4BBB0895611105C088B3A4
:10061000807F4F70482B04C088B38F70407F482B79
:1006200048BB0895611105C085B3807F4F70482B8A
:1006300004C085B38F70407F482B45BB089561117E
:1006400005C082B3807F4F70482B04C082B38F7087
:10065000407F482B42BB089581E00E9476000E94B3
:1006600000019C01A4EFB1E00E940E09DC01CB0166
:10067000072E7AE0B695A795979587957A95D1F745
:10068000702D8C3F910510F481E0089580E008956D
:1006900084E00E9476000E9400019C01A4EFB1E07A
:1006A0000E940E09DC01CB01072E7AE0B695A795D2
:1006B000979587957A95D1F7702D429710F481E040
:1006C000089580E0089585E00E9476000E94000170
:1006D0009C01A4EFB1E00E940E09DC01CB01072EC2
:1006E0007AE0B695A795979587957A95D1F7702D6D
:1006F000429710F481E0089580E0089586E00E941A
:1007000076000E9400019C01A4EFB1E00E940E0956
:10071000DC01CB01072E7AE0B695A79597958795D2
:100720007A95D1F7702D429710F481E0089580E01A
:10073000089587E00E9476000E9400019C01A4EFCA
:10074000B1E00E940E09DC01CB01072E7AE0B695DC
:10075000A795979587957A95D1F7702D419710F4C5
:1007600081E0089580E008950E9459000E9472007F
:100770000E94A00460E080E00E94920460E080E0BB
:100780000E941B020E94DB04C82F0E94E7080E94FF
:10079000DB04C817E1F3F6CFCF93C82F41E061E047
:1007A00081E00E94A50140E062E081E00E94A50195
:1007B00041E063E081E00E94A5018FE99FE001979D
:1007C000F1F700C000004C2F61E083E00E94EC02D2
:1007D00040E063E081E00E94A5018FE99FE001977E
:1007E000F1F700C0000041E063E081E00E94A50154
:1007F0008FE99FE00197F1F700C000004C2F429570
:10080000407F61E083E00E94EC0240E063E081E031
:100810000E94A5018FE99FE00197F1F700C0000059
:10082000CF910895CF93C82F40E061E081E00E940E
:10083000A50140E062E081E00E94A50141E063E0A3
:1008400081E00E94A5018FE99FE00197F1F700C0C8
:1008500000004C2F61E083E00E94EC0240E063E086
:1008600081E00E94A5018FE99FE00197F1F700C0A8
:10087000000041E063E081E00E94A5018FE99FE074
:100880000197F1F700C000004C2F4295407F61E0D6
:1008900083E00E94EC0240E063E081E00E94A50159
:1008A0008FE99FE00197F1F700C00000CF91089514
:1008B0000F931F93CF938C01809160000E941204CC
:1008C0008091600088234CF410C0F801EC0FF11DFA
:1008D00080810E94CC03CF5F01C0C0E0C830A8F384
:1008E00080916000885F8093600080E80E9412041D
:1008F0002091600022232CF480E48093600087E044
:100900000DC030E028543109C90199230CF4079631
:10091000959587959595879595958795CF911F91F5
:100920000F910895811105C080E8860F0E9412047E
:100930000895813021F480EC860F0E9412040895FE
:1009400041E061E081E00E942F0141E062E081E04E
:100950000E942F0141E063E081E00E942F0141E00D
:1009600061E083E00E9445022FE785EB91E0215092
:1009700080409040E1F700C0000083E30E94120431
:1009800082E30E94120488E20E9412048CE00E941A
:10099000120481E00E94120486E00E94120482E0A8
:1009A0000E94120460E080E00E949204089581E0B9
:1009B0000E94120408950E942C03882381F00E9453
:1009C000480381110CC00E946303882341F00E94F8
:1009D0007E03882321F00E949903811191C00E9417
:1009E0002C03882381F00E944803882361F00E9431
:1009F0006303882341F00E947E03882321F00E9434
:100A0000990381117FC00E942C03811111C00E94A3
:100A1000480381110DC00E946303811109C00E9427
:100A20007E03882329F00E949903882309F46CC06F
:100A30000E942C03811111C00E94480381110DC036
:100A40000E946303882349F00E947E03882329F0D3
:100A50000E949903882309F459C00E942C0388231B
:100A600089F00E94480381110DC00E94630388230E
:100A700049F00E947E03882329F00E94990388236D
:100A800009F446C00E942C03811110C00E94480343
:100A900081110CC00E946303811108C00E947E0373
:100AA000811104C00E9499038823A1F10E942C03A4
:100AB000811110C00E944803882361F00E946303E3
:100AC000882341F00E947E03882321F00E9499032D
:100AD000811122C00E942C03811120C00E94480372
:100AE00081111EC00E9463038823E1F00E947E03EF
:100AF0008823D1F00E949903811118C08AE00895DB
:100B000080E0089581E0089582E0089583E00895EB
:100B100084E0089585E0089586E008958AE00895C8
:100B20008AE008958AE008958AE0089587E00895AC
:100B30001F93CF93DF9381E291E00E945804182F16
:100B400089E890E00E945804D82F89EF90E00E9435
:100B50005804C82F0E94D70469E080E00E949204E4
:100B6000812F0E94CC0368E080E00E9492048D2FC8
:100B70000E94CC0367E080E00E9492048C2F0E94C8
:100B8000CC03DF91CF911F910895DF92EF92FF92F6
:100B90000F931F93CF93DF9381E291E00E9458045B
:100BA000C82F89E890E00E945804D82E89E191E08E
:100BB0000E945804E82E81ED90E00E945804F82E1F
:100BC00081EB90E00E945804082F81E191E00E949F
:100BD0005804182F89EA90E00E945804D82F0E94E8
:100BE000D7046EE080E00E9492048C2F0E94CC0318
:100BF0006DE080E00E9492048D2D0E94CC036CE099
:100C000080E00E9492048E2D0E94CC0369E080E077
:100C10000E9492048C2F0E94CC0368E080E00E9426
:100C200092048F2D0E94CC0367E080E00E94920422
:100C30008C2F0E94CC0366E080E00E949204802FFB
:100C40000E94CC0365E080E00E949204812F0E9404
:100C5000CC0364E080E00E9492048D2F0E94CC03BC
:100C6000DF91CF911F910F91FF90EF90DF9008954A
:100C7000EF92FF920F931F93CF93DF9389EE90E053
:100C80000E945804C82F81EB90E00E945804E82E7F
:100C900089E191E00E945804F82E81E291E00E94DF
:100CA0005804082F81E191E00E945804182F89EA26
:100CB00090E00E945804D82F0E94D7046CE080E096
:100CC0000E9492048C2F0E94CC036BE080E00E9473
:100CD00092048E2D0E94CC036AE080E00E94920470
:100CE0008F2D0E94CC0366E080E00E949204802F4A
:100CF0000E94CC0365E080E00E9492048C2F0E9449
:100D0000CC0364E080E00E949204812F0E94CC0317
:100D100063E080E00E9492048D2F0E94CC03DF915B
:100D2000CF911F910F91FF90EF9008950F931F9314
:100D3000CF93DF9381E291E00E945804082F89EE5F
:100D400090E00E945804182F81E191E00E9458041D
:100D5000D82F89EA90E00E945804C82F0E94D70437
:100D600069E080E00E949204802F0E94CC0368E03A
:100D700080E00E949204812F0E94CC0367E080E013
:100D80000E9492048D2F0E94CC0366E080E00E94B6
:100D900092048C2F0E94CC03DF91CF911F910F9171
:100DA0000895DF92EF92FF920F931F93CF93DF93FB
:100DB00081E890E00E945804D82F89E790E00E94D3
:100DC0005804C82F89ED90E00E945804D82E81E283
:100DD00091E00E945804E82E81ED90E00E945804B2
:100DE000F82E89E690E00E945804082F89E091E0EF
:100DF0000E945804182F0E94D7046EE080E00E94E1
:100E000092048D2F0E94CC036DE080E00E9492043A
:100E10008C2F0E94CC036CE080E00E9492048D2D08
:100E20000E94CC036BE080E00E9492048E2D0E9411
:100E3000CC0369E080E00E9492048F2D0E94CC03D5
:100E400068E080E00E9492048D2F0E94CC0367E04E
:100E500080E00E9492048C2F0E94CC0366E080E028
:100E60000E949204802F0E94CC0365E080E00E94E3
:100E70009204812F0E94CC03DF91CF911F910F919B
:100E8000FF90EF90DF900895CF92DF92EF92FF9264
:100E90000F931F93CF93DF9381E291E00E94580458
:100EA000D82E81E091E00E945804E82E81E990E07C
:100EB0000E945804F82E89E890E00E945804082FF8
:100EC00081E690E00E945804182F81EA90E00E9489
:100ED0005804D82F89EA90E00E945804C82F0E9435
:100EE000D7046EE080E00E9492048D2D0E94CC0316
:100EF0006DE080E00E9492048E2D0E94CC036CE095
:100F000080E00E9492048F2D0E94CC036BE080E071
:100F10000E949204802F0E94CC036AE080E00E942D
:100F20009204812F0E94CC0368E080E00E9492042A
:100F30008D2F0E94CC0367E080E00E9492048C2FEA
:100F40000E94CC032FEF83ED90E32150804090402E
:100F5000E1F700C0000089EE90E00E945804C82E1E
:100F600089E690E00E945804D82F89E191E00E9420
:100F70005804D82E81E790E00E945804C82F89ECCD
:100F800090E00E945804E82E81EC90E00E94580402
:100F9000F82E89EB90E00E945804082F81EE90E033
:100FA0000E945804182F0E94D7046DE080E00E9430
:100FB00092048C2D0E94CC036CE080E00E9492048D
:100FC0008D2F0E94CC036BE080E00E9492048D2D57
:100FD0000E94CC036AE080E00E9492048C2F0E9461
:100FE000CC0368E080E00E9492048E2D0E94CC0326
:100FF00067E080E00E9492048F2D0E94CC0366E09F
:1010000080E00E949204802F0E94CC0365E080E083
:101010000E9492048D2F0E94CC0364E080E00E9425
:101020009204812F0E94CC0363E080E00E9492042E
:101030008C2F0E94CC03DF91CF911F910F91FF90D5
:10104000EF90DF90CF900895EF92FF920F931F9350
:10105000CF93DF9389EB90E00E945804E82E81E95A
:1010600090E00E945804F82E81EA90E00E94580413
:10107000082F81EF90E00E945804182F89E690E035
:101080000E945804D82F81EE90E00E945804C82F87
:101090000E94D7046BE080E00E9492048E2D0E9493
:1010A000CC036AE080E00E9492048F2D0E94CC0362
:1010B00069E080E00E949204802F0E94CC0367E0E8
:1010C00080E00E949204812F0E94CC0366E080E0C1
:1010D0000E9492048D2F0E94CC0365E080E00E9464
:1010E00092048C2F0E94CC03DF91CF911F910F911E
:1010F000FF90EF900895DF92EF92FF920F931F936E
:10110000CF93DF9381E291E00E945804C82F81EDD4
:1011100090E00E945804D82E89EA90E00E9458047A
:10112000E82E89E990E00E945804F82E89EE90E0BC
:101130000E945804082F81EB90E00E945804182F59
:1011400089E191E00E945804D82F0E94D7046CE0F6
:1011500080E00E9492048C2F0E94CC036BE080E020
:101160000E9492048D2D0E94CC036AE080E00E94D0
:1011700092048C2F0E94CC0369E080E00E949204CC
:101180008E2D0E94CC0366E080E00E9492048F2D99
:101190000E94CC0365E080E00E949204802F0E94B0
:1011A000CC0364E080E00E949204812F0E94CC0373
:1011B00063E080E00E9492048D2F0E94CC03DF91B7
:1011C000CF911F910F91FF90EF90DF90089590E0E5
:1011D00088309105E0F4FC01EE5CFF4F0C940809A7
:1011E0000E94980508950E94C50508950E9438063A
:1011F00008950E94960608950E94D10608950E94BF
:10120000440708950E94240808950E947B080895C9
:10121000EE0FFF1F0590F491E02D0994A29FB001FD
:10122000B39FC001A39F700D811D1124911DB29F1A
:0E123000700D811D1124911D0895F894FFCFBB
:10123E0040000000000013121E00000001011F00FC
:10124E0006000A000E0A0E000000000000001F003B
:10125E000000000E15151F000000000005011F0004
:10126E000000000007051F000000090909091F0002
:10127E000000010101011F0000000D091D011F00EA
:10128E000006070507011F000000000007041F00ED
:10129E000000000000001F000000000015151F00D8
:1012AE00000000000002020206000100010107001A
:1012BE000000000001010700000000000F011F00E8
:1012CE000000000007011F000200000611111F00A0
:1012DE00000000000D011F000000000011111F0092
:1012EE000400000001011F000400040404040700B0
:0A12FE0000000404040404000000D2
:00000001FF
